:100000000C9492140C94C3140C94C3140C94C31445
:100010000C94C3140C94C3140C94C3140C94C31404
:100020000C94C3140C94C3140C94C3140C94C314F4
:100030000C94C3140C94C3140C94C3140C94C314E4
:100040000C94C3140C94BA390C94C3140C94C314B8
:100050000C94C3140C94C3140C9463360C9477BFA3
:100060000C94C3140C945BA50C94C3140C94C3148B
:100070000C94C3140C94C3140C94C3140C94C314A4
:100080000C94C3140C94C3140C94C3140C94C31494
:100090000C94C3140C94C3140C94C3140C94C31484
:1000A0000C94C3140C94C3140C94C3140C94C31474
:1000B0000C94C3140C94C3140C94C3140C94C31464
:1000C0000C94C3140C94C3140C94C3140C94C31454
:1000D0000C94C3140C94C3140C94C3140C94C31444
:1000E0000C94C314084AD73B3BCE016E84BCBFFDC1
:1000F000C12F3D6C74319ABD56833DDA3D00C77FF8
:1001000011BED9E4BB4C3E916BAAAABE0000008090
:100110003F05A84CCDB2D44EB93836A9020C50B91F
:10012000918688083CA6AAAA2ABE000000803F004B
:100130004E414E494E495459494E46CDCCCC3D0ACC
:10014000D7233C17B7D13877CC2B329595E6241FAF
:10015000B14F0A000020410000C84200401C462068
:10016000BCBE4CCA1B0E5AAEC59D74434F4D4D5577
:100170004E49434154494F4E0044525952554E0046
:100180004552524F525300494E464F004543484F47
:1001900000656E7175657565696E67202200505245
:1001A00045525553454E4F2E20005A415354415607
:1001B000454E4F2E20005072696E74657220737424
:1001C0006F707065642064756520746F206572724D
:1001D0006F72732E2046697820746865206572728C
:1001E0006F7220616E6420757365204D3939392036
:1001F000746F20726573746172742E202854656D5B
:1002000070657261747572652069732072657365BB
:10021000742E2053657420697420616674657220A1
:1002200072657374617274696E67290A004E6F207B
:10023000436865636B73756D2077697468206C69BA
:100240006E65206E756D6265722C204C6173742032
:100250004C696E653A20004E6F20436865636B738E
:10026000756D2077697468206C696E65206E756D98
:100270006265722C204C617374204C696E653A2063
:1002800000636865636B73756D206D69736D617470
:1002900063682C204C617374204C696E653A2000B1
:1002A0004C696E65204E756D626572206973206EB3
:1002B0006F74204C617374204C696E65204E756DAF
:1002C0006265722B312C204C617374204C696E6511
:1002D0003A20004D313130004D333100534420720B
:1002E000656164206572726F720A00446F6E6520EA
:1002F0007072696E74696E672066696C650A0020A9
:10030000496E76616C696420657874727564657293
:1003100020000000000000000000000000000000BD
:10032000344300003443000048435061726B6F76E1
:10033000616E692073656C68616C6F0050726F74D8
:1003400065637465642050696E0A0020573A004561
:100350002043686C617A656E692E2E2E0045205A06
:100360006168726976616E692E2E2E0020573A0000
:1003700043686C617A656E6920706F646C6F7A6B2C
:1003800079005A6168726976616E6920706F646C79
:100390006F7A6B7900205A3A0020593A0020436F57
:1003A000756E7420583A0020453A00205A3A0020D1
:1003B000593A00583A003A004361703A004B6420C1
:1003C0000023646566696E652044454641554C547A
:1003D0005F004B69200023646566696E65204445B3
:1003E0004641554C545F004B70200023646566699C
:1003F0006E652044454641554C545F0050494420A9
:100400004175746F74756E652066696E6973686591
:1004100064212050757420746865206C61737420A9
:100420004B702C204B6920616E64204B6420636FFD
:100430006E7374616E74732066726F6D2062656C8A
:100440006F7720696E746F20436F6E66696775728F
:100450006174696F6E2E680A0050494420417574BA
:100460006F74756E65206661696C656421207469BE
:100470006D656F75740A004531205445504C4F54DA
:100480004E4920554E494B005445504C2E20554E58
:10049000494B20504F444C2E00546865726D616C7E
:1004A0002052756E61776179004531204368796229
:1004B00061207A6168726976616E69004368796269
:1004C00061207A6168722E706F646C2E00486561DD
:1004D00074696E67206661696C65640050494420E8
:1004E0004175746F74756E65206661696C65642111
:1004F0002054656D706572617475726520746F6FDC
:1005000020686967680A00204B643A2000204B6924
:100510003A2000204B703A20000A20436C6173732C
:10052000696320504944200A002054753A20002075
:100530004B753A2000206D61783A2000206D696E7D
:100540003A200020643A200020626961733A20005A
:10055000504944204175746F74756E6520737461E1
:1005600072740A00504944204175746F74756E6549
:10057000206661696C6564212054656D70657261E7
:100580007475726520746F6F20686967680A00501F
:100590004944204175746F74756E65206661696C9D
:1005A00065642120426164206578747275646572A7
:1005B000206E756D6265720A004D3630303A204DFE
:1005C0006F632073747564656E7900486F74656E2F
:1005D0006420746F6F20636F6C640A00496E7365EA
:1005E00072742066696C616D656E7420616E642042
:1005F000707265737320627574746F6E0A00507246
:1006000065737320627574746F6E20746F206865F3
:100610006174206E6F7A7A6C650A00496E73657238
:10062000742066696C616D656E7420616E64207003
:100630007265737320627574746F6E20286F7220F8
:100640004D313038290A00496E736572742066692D
:100650006C616D656E7420616E6420707265737379
:1006600020627574746F6E20286F72204D3130389F
:10067000290A0047322F473320626164207061727B
:10068000616D65746572730A00557370616E6F2ECB
:100690002E2E0043656B616E69206E6120757A694C
:1006A000762E2E2E005A61646E7920706F68796202
:1006B0002E00456E642066696C65206C6973740A4F
:1006C00000426567696E2066696C65206C697374A9
:1006D0000A00286E6F2066696C6529004375727286
:1006E000656E742066696C653A2000534420707210
:1006F000696E74696E67206279746520004E6F744C
:10070000205344207072696E74696E670A004465F4
:100710006C6574696F6E206661696C65642C204637
:10072000696C653A200046696C652064656C657487
:1007300065643A002569730025696D202569730099
:100740002569682025696D20256973002569642065
:100750002569682025696D20256973002569792040
:10076000256964202569682025696D202569730045
:100770005072696E742074696D653A20006F666608
:10078000008C018701800179016B01444542554786
:100790003A00505245525553454E4F2E20004D3190
:1007A00031332053006F6B003344205072696E74F4
:1007B0006572205679702E002C20002C20005448A1
:1007C00045524D414C5F50524F54454354494F4E52
:1007D000004155544F5245504F52545F53445F535C
:1007E000544154555300454D455247454E43595F7A
:1007F00050415253455200434153455F4C4947488D
:10080000545F4252494748544E45535300544F4752
:10081000474C455F4C494748545300534F46545743
:100820004152455F504F574552004255494C445F35
:1008300050455243454E54004C4556454C494E4751
:100840005F44415441005A5F50524F424500415568
:10085000544F4C4556454C005052494E545F4A4FF8
:10086000420050524F4752455353004155544F5246
:1008700045504F52545F54454D5000564F4C554DC6
:10088000455452494300454550524F4D005345523F
:1008900049414C5F584F4E5F584F464600464952BB
:1008A0004D574152455F4E414D453A4D61726C691D
:1008B0006E20312E312E39202847697468756229DF
:1008C00020534F555243455F434F44455F55524C6B
:1008D0003A68747470733A2F2F6769746875622E62
:1008E000636F6D2F4D61726C696E4669726D7761D1
:1008F00072652F4D61726C696E2050524F544F4398
:100900004F4C5F56455253494F4E3A312E30204D91
:10091000414348494E455F545950453A334420506D
:1009200072696E7465722045585452554445525F41
:10093000434F554E543A3120555549443A63656406
:1009400065326132662D343161322D343734382DC1
:10095000396231322D633535633632663336376668
:10096000660A002F2F20004D31343520533C696E2C
:100970006465783E206F7574206F662072616E67C3
:10098000652028302D31290A0020540020520041D2
:100990006363656C65726174696F6E3A2050004FD5
:1009A0006673657479206E6173746176656E790023
:1009B0004572723A20546F6F206661722100546F45
:1009C0006F206661722066726F6D20726566657257
:1009D000656E636520706F696E740A00205A00208E
:1009E0005900580020204D61783A2000205A0020FC
:1009F0005900580020204D696E3A20005A6170005D
:100A000056797000536F667420656E6473746F70EE
:100A1000733A200020466C6F773A20000001363789
:100A20002603FFFFFF353C3D380EFFFFFF312E3020
:100A30003E12FFFFFFFF28FF0C0809FFFFFF1A1CF3
:100A400018FFFF2A08440AFF43496E76616C696407
:100A50002065787472756465720A0020643A00201B
:100A6000693A0020703A0043290A0061626C6564AB
:100A700020286D696E2074656D702000436F6C6472
:100A8000206578747275646573206172652000203A
:100A9000643A0020693A0020703A004E6F2063618A
:100AA0007365206C696768740A00454550524F4D64
:100AB000204F4B0A00416374697665204578747253
:100AC000756465723A2000496E76616C69642065D0
:100AD000787472756465720A00526573656E643A63
:100AE00020006F6B0020746F6F206C6F6E67206545
:100AF0007874727573696F6E2070726576656E7446
:100B000065640A0020636F6C642065787472757385
:100B1000696F6E2070726576656E7465640A006236
:100B20007573793A2070617573656420666F722001
:100B3000696E7075740A00627573793A2070617518
:100B400073656420666F7220757365720A00627542
:100B500073793A2070726F63657373696E670A0008
:100B6000505245525553454E4F2E20004B494C4C48
:100B700020636175736564206279204B494C4C2079
:100B8000627574746F6E2F70696E0A005052455210
:100B90005553454E4F2E20004B494C4C20636175F8
:100BA00073656420627920746F6F206D75636820AF
:100BB000696E6163746976652074696D65202D20A6
:100BC00063757272656E7420636F6D6D616E643AE9
:100BD000200050726F766564746520726573657469
:100BE000005449534B2E205A4153544156454E41CF
:100BF000005072696E7465722068616C7465642E51
:100C0000206B696C6C28292063616C6C6564210A17
:100C1000000000000000000000000000000000488C
:100C2000420000484200008040000000005761720E
:100C30006E696E673A20486F6D696E672042756D08
:100C4000702044697669736F72203C20310A00027B
:100C500002040000A0400000A0400000004000008E
:100C600034430000344300004843FFFFFF7C3C3E18
:100C70005E2B3D3F2F5B5D3B2C2A225C0045727250
:100C80006F722077726974696E6720746F204545B2
:100C900050524F4D210A00454550524F4D2064613E
:100CA000746173697A65206572726F722E0A002909
:100CB0000A002062797465733B20637263200053DD
:100CC000657474696E67732053746F72656420284D
:100CD00000290A002062797465733B2063726320E7
:100CE000002073746F7265642073657474696E6735
:100CF0007320726574726965766564202800202807
:100D000063616C63756C6174656429210A0020213C
:100D10003D2000454550524F4D20435243206D69C0
:100D2000736D61746368202D202873746F7265641D
:100D30002920002053697A653A2000496E6465785D
:100D40003A2000204D61726C696E3D563536290A95
:100D50000028454550524F4D3D00454550524F4D9E
:100D60002076657273696F6E206D69736D6174634F
:100D700068200048617264636F646564204465663E
:100D800061756C742053657474696E6773204C6F61
:100D9000616465640A00F4010000F4010000C80009
:100DA0000000E80300000000C8430000C843000042
:100DB00070420000A0420000484300004843000089
:100DC000484466A6874320286D6D290020204D36B3
:100DD000303320002055004C0046696C616D656E13
:100DE00074206C6F61642F756E6C6F6164206C652C
:100DF0006E677468733A0A0020440020490020207E
:100E00004D33303420500020440020490020204D34
:100E10003330312050005049442073657474696E3A
:100E200067733A0A00204600204200204800202034
:100E30004D3134352053004D6174657269616C2009
:100E400068656174757020706172616D657465723A
:100E5000733A0A00205A0020590020204D323036C3
:100E6000205800486F6D65206F66667365743A0A96
:100E700000204500205A002059002058002054002E
:100E800020530020204D32303520510020453C6D4C
:100E900061785F655F6A65726B3E0020583C6D61EA
:100EA000785F785F6A65726B3E20593C6D61785F50
:100EB000795F6A65726B3E205A3C6D61785F7A5F3C
:100EC0006A65726B3E00416476616E6365643A20C8
:100ED000513C6D696E5F7365676D656E745F7469B3
:100EE0006D655F75733E20533C6D696E5F66656529
:100EF00064726174653E20543C6D696E5F7472610A
:100F000076656C5F66656564726174653E00205449
:100F10000020520020204D323034205000416363C5
:100F2000656C65726174696F6E2028756E69747383
:100F30002F7332293A20503C7072696E745F61637E
:100F400063656C3E20523C726574726163745F61CC
:100F50006363656C3E20543C74726176656C5F61BE
:100F60006363656C3E0A00204500205A002059004A
:100F700020204D3230312058004D6178696D756DFB
:100F800020416363656C65726174696F6E202875BA
:100F90006E6974732F7332293A0A00204500205A73
:100FA0000020590020204D3230332058004D617808
:100FB000696D756D2066656564726174657320285E
:100FC000756E6974732F73293A0A00204500205A00
:100FD0000020590020204D3932205800537465708C
:100FE000732070657220756E69743A0A0020204D76
:100FF0003230302044300A0020204D32303020443E
:10100000002044697361626C65640A0046696C6122
:101010006D656E742073657474696E67733A002031
:10102000204D3134392043203B20556E69747320A4
:10103000696E2043656C736975730A00202047321E
:1010400031202020203B0054524947474552454417
:10105000006F70656E003A20007A5F6D696E0079EE
:101060005F6D696E00785F6D696E005265706F72BA
:1010700074696E6720656E6473746F702073746139
:101080007475730A0024F4D43050C38E20C2A24079
:1010900017828B7011127A910D816CD90AA861E1C7
:1010A00008C7586607615143061E4B5D05C145A739
:1010B000041A411104093D9803713931034036DBAC
:1010C0000265339102D4305402802E1D02632CEE4F
:1010D00001752AC501B028A001102781018F256460
:1010E000012B244B01E0223401AC211F018D200D86
:1010F00001801FFC00841EED00971DDF00B81CD28C
:1011000000E61BC600201BBC00641AB200B219A87E
:10111000000A19A0006A189900D117910040178B96
:1011200000B516840031167E00B31579003A1573A8
:1011300000C7146F0058146A00EE1366008813632A
:101140000025135E00C7125B006C12570015125485
:1011500000C111510070114F0021114B00D61049F0
:10116000008D1047004610440002104200C00F409E
:1011700000800F3E00420F3C00060F3B00CB0E38B4
:1011800000930E37005C0E3500270E3400F30D324D
:1011900000C10D3100900D3000600D2E00320D2D7C
:1011A00000050D2C00D90C2B00AE0C2900850C2954
:1011B000005C0C2700350C27000E0C2600E80B24E1
:1011C00000C40B2400A00B23007D0B23005A0B212D
:1011D00000390B2100180B2000F80A1F00D90A1E45
:1011E00000BB0A1E009D0A1D00800A1D00630A1C28
:1011F00000470A1B002C0A1B00110A1A00F7091AE3
:1012000000DD091900C4091900AB0919009209177A
:10121000007B091800630917004C091600360916EF
:1012200000200916000A091500F5081500E0081449
:1012300000CC081400B8081400A408140090081387
:10124000007D0812006B08130058081200460812AF
:1012500000340811002308110012081100010811C0
:1012600000F0071000E0071000D0071000C00710C2
:1012700000B0070F00A107100091070E0083070FB1
:101280000074070F0065070E0057070E0049070E90
:10129000003B070D002E070E0020070D0013070D61
:1012A0000006070D00F9060C00ED060D00E0060C27
:1012B00000D4060C00C8060C00BC060C00B0060CDE
:1012C00000A4060B0099060C008D060B0082060B8D
:1012D0000077060B006C060B0061060A0057060B30
:1012E000004C060A0042060A0038060A002E060ACA
:1012F0000024060A001A060A001006090007060A5A
:1013000000FD050900F4050900EB050900E20509E7
:1013100000D9050900D0050900C7050900BE050967
:1013200000B5050800AD050800A50509009C0508E5
:1013300000940508008C050800840508007C050859
:1013400000740508006C050700650508005D0507C9
:1013500000560508004E0507004705070040050830
:101360000038050700310507002A05070023050797
:10137000001C050600160507000F050700080506F6
:101380000002050700FB040600F5040700EE040652
:1013900000E8040600E2040700DB040600D50406AA
:1013A00000CF040600C9040600C3040600BD0406FD
:1013B00000B7040600B1040500AC040600A604064C
:1013C00000A00405009B0406009504050090040697
:1013D000008A04050085040500800406007A0405DF
:1013E0000075040500700405006B04050066040523
:1013F00000610405005C0405005704050052040563
:10140000004D04050048040500430405003E0404A3
:10141000003A04050035040500300404002C0405DE
:101420000027040400230405001E0404001A040419
:101430000016040500110404000D0404000904054D
:10144000000404040000040400FC030400F8030486
:1014500000F4030400F0030400EC030400E80304B8
:1014600000E4030400E0030400DC030400D80304E8
:1014700000D4030400D0030400CC030400C8030319
:1014800000C503030024F404D9201BC40C5C0E988F
:1014900004C4095F0265077101F405F900FB04B398
:1014A0000048048700C10369005803550003034541
:1014B00000BE023A008402310053022A00290225AC
:1014C0000004022000E4011C00C8011900AF01174C
:1014D00000980114008401130071011000610110D3
:1014E0000051010E0043010D0036010B002B010BD2
:1014F0000020010B00150109000C0109000301087F
:1015000000FB000800F3000800EB000700E4000601
:1015100000DE000600D8000600D2000600CC000560
:1015200000C7000500C2000500BD000400B90004AA
:1015300000B5000400B1000400AD000400A90004DF
:1015400000A5000300A20003009F0004009B00030D
:101550000098000300950002009300030090000330
:10156000008D0002008B000300880002008600024C
:101570000084000300810002007F0002007D000261
:10158000007B000200790002007700010076000273
:10159000007400020072000100710002006F00027E
:1015A000006D0001006C0002006A00010069000289
:1015B0000067000100660001006500010064000290
:1015C000006200010061000100600001005F000294
:1015D000005D0001005C0001005B0001005A000199
:1015E0000059000100580001005700010056000199
:1015F0000055000100540001005300000053000199
:10160000005200010051000100500001004F000194
:10161000004E0000004E0001004D0001004C000192
:10162000004B0000004B0001004A0001004900018E
:10163000004800000048000100470001004600008B
:101640000046000100450000004500010044000183
:10165000004300000043000100420000004200017E
:10166000004100000041000100400001003F000077
:10167000003F0001003E0000003E0001003D000070
:10168000003D0001003C0000003C0000003C000167
:10169000003B0000003B0001003A0000003A00015E
:1016A0000039000000390001003800000038000057
:1016B000003800010037000000370001003600004C
:1016C0000036000000360001003500000035000043
:1016D0000035000100340000003400000034000137
:1016E000003300000033000000330001003200002E
:1016F0000032000000320001003100000031000023
:101700000031000100300000003000000030000116
:10171000002F0000002F0000002F0000002F00010C
:10172000002E0000002E0000002E0001002D000001
:10173000002D0000002D0000002D0001002C0000F5
:10174000002C0000002C0000002C0001002B0000E9
:10175000002B0000002B0000002B0001002A0000DD
:10176000002A0000002A0000002A000100290000D1
:1017700000290000002900000029000000290001C4
:1017800000280000002800000028000000280000B9
:1017900000280001002700000027000000270000AB
:1017A000002700000027000100260000002600009E
:1017B0000026000000260000002600010025000091
:1017C0000025000000250000002500000025000085
:1017D0000025000100240000002400000024000077
:1017E000002400000024000100230000002300006A
:1017F000002300000023000000230000002300005D
:10180000002300010022000000220000002200004E
:101810000022000000220000002200010021000040
:101820000021000000210000002100000021000034
:101830000021000000210001002000000020000025
:101840000020000000200000002000000020000018
:101850000020000000200001001F0000001F000009
:10186000001F0000001F0000001F0000001F0000FC
:10187000001F0001001E0000001E0000001E0000EE
:10188000001E000000043700001E290000511B004C
:10189000005810000010090000CC0400007802007D
:1018A00000410100006265640A002C2073797374A2
:1018B000656D2073746F7070656421204865617474
:1018C00065725F49443A20004368796261207A6119
:1018D00068722E706F646C2E0048656174696E6763
:1018E000206661696C6564004531204368796261F6
:1018F000207A6168726976616E6900486561746911
:101900006E67206661696C65640070012C0190014E
:101910002701B0012201C0011D01F00118011002D0
:10192000130130020E016002090190020401C0029D
:10193000FF000003FA004003F5008003F000D0032D
:10194000EB002004E6007004E100E004DC00400548
:10195000D700C005D2004006CD00D006C8008007E1
:10196000C3003008BE00F008B900C009B400B00AD6
:10197000AF00B00BAA00D00CA500000EA000500FC5
:101980009B00C01096005012910000148C00C015EE
:101990008700B0178200B0197D00D01B7800001EB0
:1019A000730040206E0090226900F02464004027FC
:1019B0005F0090295A00E02B5500102E5000203077
:1019C0004B0010324600E033410090353C001037A8
:1019D000370070383200A0392D00B03A2800A03B03
:1019E0002300603C1E00103D1900903D1400103E85
:1019F0000F00703E0A00C03E0500003F0000403F5F
:101A0000FBFF803FF6FFC03FF1FF453120544550BA
:101A10004C4F544E4920554E494B005445504C2E86
:101A200020554E494B20504F444C2E00546865724F
:101A30006D616C2052756E61776179004531205679
:101A400059534F4B41205445504C4F544100565927
:101A5000532E205445504C2E20504F444C2E004DB8
:101A6000415854454D5020747269676765726564CA
:101A7000004531204E495A4B41205445504C4F545B
:101A800041004E495A2E205445504C2E20504F4470
:101A90004C2E004D494E54454D5020747269676775
:101AA00065726564004D383420582059205A20450D
:101AB00000202F002042403A0020403A0025753A8D
:101AC0002530327500253032753A25303275002DBB
:101AD0002D2D0053440020202020202000202020F5
:101AE00020003344205072696E74657220707269F0
:101AF00070726176656E2E005469736B6E752E2E52
:101B00002E005469736B20706F7A6173746176650F
:101B10006E005469736B207A727573656E00546938
:101B2000736B6E6F7574207A205344005A6173741E
:101B300061766974207469736B004F626E6F7669A9
:101B400074207469736B005A61646E612053442081
:101B50006B6172746100506F7A617374617669743D
:101B6000207469736B004F766C6164616E6900501C
:101B700072697072617661207469736B7500446F6D
:101B80006C6164656E69207469736B7500496E667B
:101B90006F206F6272617A6F766B610056796D6546
:101BA0006E69742066696C616D656E740056796D3E
:101BB000656E69742066696C616D656E74004D3682
:101BC000303020423000507275746F6B0050727567
:101BD000746F6B00527963686C6F73742076656EF6
:101BE000742E00527963686C6F73742076656E741E
:101BF0002E00506F646C6F7A6B6100506F646C6F75
:101C00007A6B6100547279736B6100547279736BF3
:101C10006100527963686C6F737400527963686C09
:101C20006F737400486C61766E69206E61626964DE
:101C30006B61005A616872617420504C4120686F7A
:101C400074656E64005A616872617420504C410082
:101C50005A616872617420504C4120706F646C6FDF
:101C60007A005072697072617661207469736B7565
:101C7000005A61687261742041425320686F746534
:101C80006E64005A616872617420414253005A6167
:101C9000687261742041425320706F646C6F7A00E7
:101CA0005072697072617661207469736B75004D52
:101CB000343238005A616872617420504C41005AC5
:101CC00063686C61646974005A6168726174204170
:101CD00042530056796D656E69742066696C616D5A
:101CE000656E740056796D656E69742066696C6105
:101CF0006D656E74004D3630302042300055766F81
:101D00006C6E6974206D6F746F7279004D38340099
:101D10004E61737461766974206F667365747900BF
:101D2000446F6D6F76736B6120706F7A69636500C5
:101D300047323800506F73756E6F7574206F73790A
:101D400000486C61766E69206E616269646B610047
:101D5000506F73756E6F7574205800506F73756E89
:101D60006F7574205900506F73756E6F7574205ABB
:101D700000457874727564657200506F73756E6F8C
:101D80007574206F20302C316D6D00506F73756E3F
:101D90006F7574206F20316D6D00506F73756E6FAD
:101DA0007574206F2031306D6D00506F73756E6FDC
:101DB0007574206F7379004578747275646572006C
:101DC000506F73756E6F7574205A00506F73756E17
:101DD0006F7574205900506F73756E6F757420584D
:101DE00000457874727564657200506F73756E6F1C
:101DF0007574205A00506F73756E6F75742059009A
:101E0000506F73756E6F75742058005072697072E0
:101E1000617661207469736B7500496E69632E2069
:101E2000454550524F4D004F766C6164616E6900BC
:101E30004F626E6F76697420767963686F7A690095
:101E40004E6163697374206E6173746176656E6947
:101E500000496E69632E20454550524F4D00556C28
:101E60006F7A6974206E6173746176656E6900467D
:101E7000696C616D656E7400506F687962005465BD
:101E8000706C6F746100486C61766E69206E61627F
:101E900069646B61005A6168726174204142532029
:101EA0006E617374005A616872617420504C4120F5
:101EB0006E617374005049442D44005049442D44D0
:101EC000005049442D49005049442D49005049448F
:101ED0002D50005049442D500020022046616B7463
:101EE0000020022046616B74002002204D617800C2
:101EF0002002204D6178002002204D696E002002F2
:101F0000204D696E00567970005A617000417574F9
:101F10006F7465706C6F746100527963686C6F7375
:101F2000742076656E742E00527963686C6F7374DA
:101F30002076656E742E00506F646C6F7A6B610052
:101F4000506F646C6F7A6B6100547279736B6100CF
:101F5000547279736B61004F766C6164616E6900D5
:101F6000556C6F7A6974206E6173746176656E6901
:101F700000506F646C6F7A6B6100506F646C6F7AA5
:101F80006B6100547279736B6100547279736B6189
:101F900000527963686C6F73742076656E742E00DE
:101FA000527963686C6F73742076656E742E00547A
:101FB00065706C6F7461005654726176206D696E45
:101FC000005654726176206D696E00566D696E0020
:101FD000566D696E00566D6178204500566D6178CA
:101FE000204500566D6178205A00566D6178205A60
:101FF00000566D6178205900566D61782059005661
:102000006D6178205800566D6178205800506F68D7
:10201000796200416D6178204500416D617820450D
:1020200000416D6178205A00416D6178205A00416D
:102030006D6178205900416D6178205900416D61D2
:1020400078205800416D6178205800412D707265EC
:102050006A657A6400412D7072656A657A64004130
:102060002D72657472616B7400412D7265747261BA
:102070006B74005A727963686C005A727963686C89
:1020800000506F6879620056652D6A65726B005664
:10209000652D6A65726B00567A2D6A65726B005603
:1020A0007A2D6A65726B0056792D6A65726B0056DF
:1020B000792D6A65726B0056782D6A65726B0056D1
:1020C000782D6A65726B00506F68796200456B729B
:1020D0006F6B752F6D6D00456B726F6B752F6D6D2E
:1020E000005A6B726F6B752F6D6D005A6B726F6B50
:1020F000752F6D6D00596B726F6B752F6D6D00597B
:102100006B726F6B752F6D6D00586B726F6B752FE7
:102110006D6D00586B726F6B752F6D6D00506F6831
:102120007962004B726F6B752F6D6D004A65726B33
:1021300000416B63656C6572616365005279636829
:102140006C6F7374004F766C6164616E69005A61E4
:1021500076657374206D6D005A6176657374206DB9
:102160006D00567973756E6F7574206D6D005679BC
:1021700073756E6F7574206D6D0046696C2E2050FE
:1021800072756D2E0046696C2E205072756D2E0092
:10219000567970005A61700045206E61206D6D3374
:1021A000004F766C6164616E690043616E6E6F749E
:1021B00020656E746572207375626469723A2000DE
:1021C000052E2E00486C61766E69206E616269642E
:1021D0006B61004D37303220542564004D3630306D
:1021E00020423020542564004D373032203B256496
:1021F000004D373031205425640056796D656E6985
:10220000742066696C616D656E74005A61687261F4
:102210007420414253005A616872617420504C41ED
:102220000056796D656E69742066696C616D656EC6
:1022300074005449534B20504F5A41535441564512
:102240004E00565953554E5554492046494C414D20
:10225000454E5455005A41564544454E492046493D
:102260004C414D454E5455005679746C6163697408
:1022700020766963004F626E6F76697420746973AB
:102280006B004D4F5A4E4F535449204F424E4F56BC
:10229000454E493A002020547279736B613A200010
:1022A00076796D656E792066696C616D656E7475A1
:1022B000006E61207A6168616A656E690043656BD2
:1022C000656A74652070726F73696D0020205472A6
:1022D00079736B613A200066696C616D656E747527
:1022E000006E6120767973756E7574690043656B55
:1022F000656A74652070726F73696D002020547276
:1023000079736B613A20006E61206E61687261744E
:10231000692074722E0043656B656A746520707263
:102320006F73696D002020547279736B613A2000DD
:102330006E61687261746920747279736B79004B95
:102340006C696B6E6574652070726F00202054722A
:1023500079736B613A2000746C616369746B6F2EE2
:102360002E2E006120737469736B6E657465005660
:102370006C6F7A74652066696C616D656E7400209F
:1023800020547279736B613A200066696C616D65E7
:102390006E7475006E61207A61766564656E6900A1
:1023A00043656B656A74652070726F73696D002098
:1023B00020547279736B613A20007679746C616392
:1023C000656E69005679636B656A7465206E61009D
:1023D0007469736B75006E6120706F6B7261636FEF
:1023E00076616E690043656B656A74652070726F13
:1023F00073696D004B617274612076796A6D7574D2
:1024000061004B6172746120766C6F7A656E610059
:10241000001C1F11111F00000006191803130C00E7
:10242000040E1F041C000000000E1315110E000006
:102430001C10181705060500040A0A0A0A11110ED5
:102440000C12120C00000000001F1511151F0000D7
:1024500000002100240027002A002D003000330056
:1024600001010000040107010A010000220025000B
:1024700028002B002E00310034000201000005016D
:1024800008010B01000020002300260029002C0079
:102490002F003200000100000301060109010505BB
:1024A0000505070508080808020202020A0A0808CA
:1024B00004040404010101010101010103030303F8
:1024C00003030303040707070C0C0C0C0C0C0C0C87
:1024D0000202020206060606060606060B0B0B0B98
:1024E0000B0B0B0B010210202008081020401020BD
:1024F00040800201020108040201010204081020C8
:1025000040808040201008040201800402018040C5
:10251000201008040201080402010102040810202E
:102520004080010204081020408000000A0B0209CC
:102530000C0D0E080703040100000000000000005D
:10254000000000000000000000000000000000008B
:102550000000000000001211100000000000000048
:10256000000000000000000000000000000000006B
:1025700000000000010204040000001C1C0C040404
:102580000402010000000000040810000000000028
:102590002D2D2D2D2D2D007C4D61726C696E7C00D2
:1025A0002D2D2D2D2D2D00687474703A2F2F6D61F7
:1025B000726C696E66772E6F726700687474703A19
:1025C0002F2F6D61726C696E66772E6F72670020B7
:1025D000312E312E39002020506C616E6E657242B2
:1025E000756666657242797465733A20002046729A
:1025F0006565204D656D6F72793A2000436F6D708F
:10260000696C65643A204D61722031392032303274
:10261000300A00207C20417574686F723A20286E61
:102620006F6E652C2064656661756C7420636F6ED7
:10263000666967290A00323031382D30382D303143
:1026400000204C61737420557064617465643A2095
:1026500000312E312E390A004D61726C696E0020F6
:10266000536F6674776172652052657365740A00F2
:10267000205761746368646F672052657365740ADC
:10268000002042726F776E206F75742052657365FB
:10269000740A002045787465726E616C205265730F
:1026A00065740A00506F77657255700A0073746123
:1026B00072740A006175746F25692E670065727205
:1026C0006F722077726974696E6720746F20666913
:1026D0006C650A00456E6473746F70792025632001
:1026E000256320256320256300205A3A0020593AAB
:1026F0000020583A00656E6473746F7073206869C7
:10270000743A2000446F6E6520736176696E6720AD
:1027100066696C652E0A004D3239004D3234004D29
:10272000323320257300556E6B6E6F776E20636FAA
:102730006D6D616E643A202200486F74656E64208E
:10274000746F6F20636F6C640A00446F6D75202591
:102750007325732573207072766E6900207072760F
:102760006E690A005A0059005800446F6D752000C8
:1027700020746F6F206C6F6E67206578747275734C
:10278000696F6E2070726576656E7465640A0020EC
:10279000636F6C6420657874727573696F6E2070F6
:1027A000726576656E7465640A00534420636172D5
:1027B00064206F6B0A006F70656E526F6F742066D5
:1027C00061696C65640A00766F6C756D652E696E63
:1027D0006974206661696C65640A00534420696EFF
:1027E0006974206661696C0A0057726974696E6762
:1027F00020746F2066696C653A20006F70656E20EA
:102800006661696C65642C2046696C653A20006FCE
:1028100070656E206661696C65642C2046696C6524
:102820003A200046696C652073656C656374656465
:102830000A002053697A653A200046696C65206F6A
:1028400070656E65643A20002066696C653A200008
:10285000646F696E67006672657368004E6F7720FB
:1028600000454E4420535542524F5554494E450A57
:10287000002220706F73002220706172656E743ABE
:102880002200535542524F5554494E452043414C26
:102890004C207461726765743A220050524552555B
:1028A00053454E4F2E2000747279696E6720746F05
:1028B0002063616C6C207375622D67636F646520A3
:1028C00066696C6573207769746820746F6F206D1A
:1028D000616E79206C6576656C732E204D415820B1
:1028E0006C6576656C2069733A004572726F723A56
:1028F000006F70656E206661696C65642C204669A6
:102900006C653A200043616E6E6F74206F70656E67
:102910002073756264697220006563686F3A000015
:1029200013D7DCD611241FBECFEFD1E2DEBFCDBF5F
:1029300000E00CBF13E0A0E0B2E0ECEAF1ED01E052
:102940000BBF02C007900D92A232B107D9F722E166
:10295000A2E2B3E001C01D92A036B207E1F714E194
:10296000C1E9D4E100E006C021970109802FFE01F2
:102970000E9438E8C039D10780E00807A9F70E9413
:10298000DED70C94C5E80C9400002CEA35EC47E245
:102990005EE36091A1057091A2058091A3059091DD
:1029A000A4050E940DE66093A5057093A60580938B
:1029B000A7059093A80508952CEA35EC47E25EE35D
:1029C0006091A9057091AA058091AB059091AC0525
:1029D0000E9480E16093AD057093AE058093AF05D2
:1029E0009093B00508956091160270911702072E1A
:1029F000000C880B990B0E9421E12AE037ED43E29D
:102A00005CE30E9480E120917B0530917C05409140
:102A10007D0550917E050E9480E160933E02709397
:102A20003F028093400290934102089590916F007D
:102A3000292F227091FF05C090916F009D7F909388
:102A40006F0034E0839FC0011124FC01E054F84F73
:102A5000408151816281738183529B4FFC0140838D
:102A600051836283738381E08093DC04222329F005
:102A700080916F00826080936F0008954F925F9203
:102A80006F927F928F929F92AF92BF92EF92FF923E
:102A90000F931F93CF93DF93CEEBD5E084E0E82E26
:102AA0008DE0F82E00EE17E0412C512C32014394BA
:102AB0006991799189919991F70181909190A19073
:102AC000B1907F010E941FE1A50194010E9480E165
:102AD0000E947AE6F80161937193819391938F013B
:102AE000461657066806790610F42B013C01F5E0FE
:102AF000CE3CDF07E9F66FEF7FEFCB01A301920138
:102B00000E94F5E42093F0073093F1074093F20719
:102B10005093F307DF91CF911F910F91FF90EF90AA
:102B2000BF90AF909F908F907F906F905F904F90ED
:102B30000895A4CFCF93DF9390916F00292F227037
:102B400091FF05C090916F009D7F90936F0094E07E
:102B5000899FA0011124FA01E054F84F608171812E
:102B600082819381222329F020916F00226020939B
:102B70006F00EA01C85ED74F0E9421E128813981A8
:102B80004A815B810E9480E1DF91CF910895CF92CD
:102B9000DF92EF92FF928091DA05882309F457C003
:102BA000C090D605D090D705E090D805F090D90513
:102BB00020E030E0A901C701B6010E941BE1882393
:102BC00009F445C020E030E040E05FE3C701B60112
:102BD0000E9480E19B01AC010E9480E12BED3FE06F
:102BE00049E450E40E9480E19B01AC0160E070E0A8
:102BF00080E89FE30E940DE66B017C01C0927B059B
:102C0000D0927C05E0927D05F0927E0560911602DF
:102C100070911702072E000C880B990B0E9421E17E
:102C20002AE037ED43E25CE30E9480E1A7019601D0
:102C30000E9480E160933E0270933F0280934002C5
:102C400090934102FF90EF90DF90CF900895C12CB8
:102C5000D12C80E8E82E8FE3F82ED0CF80916F0042
:102C6000982F927081FF05C080916F008D7F8093B7
:102C70006F00109210081092110810921208109212
:102C80001308992329F080916F00826080936F0070
:102C900008950F931F938091650F9091660F891B84
:102CA0008F7009F449C09091620F992361F08330CD
:102CB00040F48FEF890F29F08093620F90E080E05D
:102CC00038C01092620F8091660F2DE4829FC00180
:102CD00011248D5C974FFC01208120FDEFCF4091A6
:102CE0001008509111086091120870911308E75B69
:102CF000FF4F0081118122813381401B510B620BF8
:102D0000730B40931008509311086093120870934E
:102D100013082091660F2F5F2F702093630F30915F
:102D2000660F2091640F321304C02091630F20932B
:102D3000640F1F910F91089591DFC0CFCF93DF9360
:102D400080919204659B4AC0816080939204909127
:102D500003018091920491FD43C08D7F8093920482
:102D6000809192044B993EC08B7F80939204C091D6
:102D7000CD04C0FF0FC08091930480FF0BC08091F1
:102D8000920480FF07C0809115068160809315062C
:102D900080E04CDEC1FF0FC08091930481FF0BC027
:102DA0008091920481FF07C0809115068260809314
:102DB000150681E03BDEC2FF17C08091930482FFBD
:102DC00013C08091920482FF0FC080911506846029
:102DD0008093150682E0DF91CF9128CE8E7FB5CF0C
:102DE0008260BCCF8460C1CFDF91CF910895CF9234
:102DF000DF92EF92FF92CF93DF93EC01C0908B05AF
:102E0000D0908C05E0908D05F0908E05A70196017D
:102E1000688179818A819B810E941BE187FF04C0C0
:102E2000C882D982EA82FB82C0908F05D09090053B
:102E3000E0909105F0909205A70196016C817D814B
:102E40008E819F810E941BE187FF04C0CC82DD82BE
:102E5000EE82FF82C0901A02D0901B02E0901C020A
:102E6000F0901D02A7019601688179818A819B817A
:102E70000E9457E7181624F4C882D982EA82FB829E
:102E8000C0901E02D0901F02E0902002F09021021C
:102E9000A70196016C817D818E819F810E9457E7F9
:102EA000181624F4CC82DD82EE82FF82C090930556
:102EB000D0909405E0909505F0909605A7019601B5
:102EC000688579858A859B850E941BE187FF04C000
:102ED000C886D986EA86FB86C0902202D09023025B
:102EE000E0902402F0902502A7019601688579857B
:102EF0008A859B850E9457E7181624F4C886D986D0
:102F0000EA86FB86DF91CF91FF90EF90DF90CF9024
:102F100008955F9A8091F3058E7F8093F3058A9AD6
:102F20008091F3058D7F8093F30580910801809552
:102F30008170809306018091F3058B7F8093F30568
:102F4000129A0895CF93DF9380E0F4DDC0E5D4E0DA
:102F5000688379838A839B8381E0ECDD6C837D8346
:102F60008E839F8382E0E6DD688779878A879B87E7
:102F7000DF91CF9108950F931F93CF93DF9394E048
:102F8000899FE00111248E0101581A4FFE01EC5077
:102F9000FA4FDE01AC58BB4F2D913D914D915C91A4
:102FA00060817181828193810E9431E5F8016083A3
:102FB000718382839383FE01EE5EFC4F8591959130
:102FC000A591B491FE01E557FA4F80839183A283C6
:102FD000B383FE01E25EFC4F85919591A591B4917A
:102FE000C65EDD4F88839983AA83BB83DF91CF912F
:102FF0001F910F91089590911406E92FF0E0E05F82
:10300000F94F80839F5F943040F490931406809131
:1030100097078F5F80939707089510921406F7CF54
:103020002FEB280F2A3108F042C0E22FF0E0809108
:10303000C5039091C603A091C703B091C80304C013
:10304000B695A795979587952A95D2F780FD02C0EA
:1030500081700895E555FC4FE081EE2329F18091C0
:10306000B8079091B907E80FF92FF11D808190ED15
:10307000980F9A3030F08E3251F4818180538A302B
:1030800098F4F0932303E093220381E008958D32B6
:1030900011F08B3249F4818190ED980F9A3088F3CA
:1030A0008E3211F48281EACFF0E0E0E0EACF80E0F6
:1030B0000895B6DF882341F081E02091220330910A
:1030C0002303232B09F480E00895089590E080E025
:1030D000089580E1E0E0F6E0A0E8B4E001900D9210
:1030E0008A95E1F7089580E1E0E8F4E0A0E0B6E039
:1030F00001900D928A95E1F7089580914E04909188
:103100004F042FEF3FEF981751F0E92FF0E0E25313
:10311000FC4F208130E09F5F9F7790934F04C9015F
:1031200008950C94E0BDCF92DF92EF92FF92CF937F
:10313000C82F0E94D4BD6B017C0124EA30E74DE723
:103140005FE3609197057091980580919905909142
:103150009A050E941BE187FD18C08AEF90E0A0E06D
:10316000B0E08C0D9D1DAE1DBF1D8093DF059093BB
:10317000E005A093E105B093E205C0933302CF913F
:10318000FF90EF90DF90CF90089580E090E0DC0119
:10319000E8CF0F931F9380917A05813019F50E9433
:1031A000D4BD0091ED041091EE042091EF04309114
:1031B000F004601B710B820B930B28EE33E040E0B0
:1031C00050E00E94F5E46091E9047091EA04809176
:1031D000EB049091EC04620F731F841F951F1F91E5
:1031E0000F9108956091F1047091F2048091F304BD
:1031F0009091F404D6CF80917A05813079F482E001
:1032000080937A050E94D4BD6093F1047093F20418
:103210008093F3049093F40481E0089580E008958E
:103220000F931F93CF93DF93EC010E94D4BD0E81C7
:103230001F8128853985011511052105310579F58D
:103240002C85222339F1EA8521502C8721E02E0F8D
:103250002A873D85231301C01A86F0E03196EE0FD0
:10326000FF1FEE0FFF1FEC0FFD1F02851385248546
:1032700035850A831B832C833D83600F711F811D5D
:10328000911D6E837F83888799878C819D81892B8F
:1032900009F0409ADF91CF911F910F910895601B23
:1032A000710B820B930B97FDF5CF40981E821F8206
:1032B00018861986EFCFCF93DF9300D01F92CDB73A
:1032C000DEB7882349F00E94DBC80F900F900F9063
:1032D0000F90DF91CF91089588EB91E09C838B83D1
:1032E00084E190E09A838983BE016D5F7F4FCE01B8
:1032F00001960E94B2A8E9CF8F929F92AF92BF929F
:10330000FF920F931F93CF93DF9300D01F92CDB7FF
:10331000DEB7F82E662351F010928F0310928B03C4
:1033200010928C0310928D0310928E030E94D4BDD4
:103330004B015C0180918B0390918C03A0918D03D4
:10334000B0918E03A5019401281B390B4A0B5B0B2E
:10335000DA01C901B7FD45C020918F03F7FC13C006
:103360004F2D0F2C000C550B4C5F5F4F822F022E00
:10337000000C990B48175907A4F184EF91E0A0E0E5
:10338000B0E02F1524F488EE93E0A0E0B0E0880DC3
:10339000991DAA1DBB1D80938B0390938C03A09352
:1033A0008D03B0938E03022F017010E024E2209F62
:1033B000C001219F900D901B112480599C4F9C832C
:1033C0008B8382E390E09A838983BE016D5F7F4F98
:1033D000CE0101960E94B2A880918F038F5F8093E7
:1033E0008F030F900F900F900F90DF91CF911F914F
:1033F0000F91FF90BF90AF909F908F9008958F9204
:103400009F92AF92BF92CF92DF92EF92FF920F9373
:10341000CF93DF931F92CDB7DEB76C017B014901DB
:10342000809190045B01A40EB51E8823A1F0F601E3
:1034300080819181480F591F518340830F90DF9104
:10344000CF910F91FF90EF90DF90CF90BF90AF9012
:103450009F908F900895F601808191810E94D0E421
:10346000898390919104992311F0002311F0F701C1
:103470008083BE016F5F7F4FC4010E94ABB6F6012F
:1034800080819181019691838083FFEFEF1AFF0A7B
:10349000EA14FB0401F7D2CFCF92DF92EF920F93A1
:1034A0001F93CF93DF9300D01F92CDB7DEB7E0908C
:1034B000BA0719821A821B821C82CE0101966C0106
:1034C00000E012E02CE036E048E056E064E076E010
:1034D00080E096E00E94E6A80F900F900F900F906A
:1034E000DF91CF911F910F91EF90DF90CF900895D2
:1034F0008091220390912303009731F04AE050E03D
:1035000070E060E00C9437DE60E070E0CB0108957D
:10351000EFDF97FD0AC0ECDF6F3F71058105910574
:1035200009F02CF4E5DF862F089580E008958FEFF1
:1035300008958091220390912303892B39F0E8DFCD
:1035400091E0811101C090E0892F089591E0FCCFB6
:103550008091220390912303009731F04AE050E0DC
:1035600070E060E00C9462DF60E070E0CB010895F1
:103570000F931F93CF938091220390912303009781
:10358000E9F0FC018F01C1912C2F2F7D81F0C53412
:1035900011F0C536B9F7F801108270E060E00E94C2
:1035A000E2DCF801C083CF911F910F91089570E084
:1035B00060E0CF911F910F910C94E2DC60E070E02D
:1035C000CB01F1CF86E42CDD8093B105882349F04F
:1035D000CFDF609327027093280280932902909393
:1035E0002A0283E51DDD882349F0C2DF60932F02A4
:1035F00070933002809331029093320282E410DDA6
:10360000882349F0B5DF60932B0270932C028093DE
:103610002D0290932E020895CF92DF92EF92FF92A7
:103620000F931F93CF93DF9331ECC32E32E0D32E51
:1036300040E8E42E44E0F42E00E016E0D0E0C0E0E4
:10364000F60181916F01ECDC882309F454C090DF0E
:10365000FE01EA55FC4F2081211104C02091AA03EC
:103660002223C9F1F80120813181428153810E94D6
:1036700031E5F70160837183828393832196F4E0BF
:10368000EF0EF11C0C5F1F4FC430D105C9F686E464
:1036900010DD8823B9F06CDF20E030E0A9010E9442
:1036A00057E718167CF464DF20E030E040E752E48E
:1036B0000E940DE660930002709301028093020263
:1036C00090930302DF91CF911F910F91FF90EF90A4
:1036D000DF90CF900895C33061F2FE01EE0FFF1F1F
:1036E000EE0FFF1FE158FA4F208131814281538153
:1036F0000E9430E5BECFF80180819181A281B38123
:10370000F70180839183A283B383B8CF80917A0538
:103710008230B1F09091970F992359F08091A80FC2
:10372000811104C08BE99FE00C94B7A788EA9FE061
:10373000FBCF813041F082EE9AE16FEF0C9416CA14
:1037400082E09BE1FACF88EF9AE1F7CF382F109211
:10375000E7058091A0079091A107A091A207B091E1
:10376000A30781309048A105B10540F01092A00751
:103770001092A1071092A2071092A3072091A00710
:103780002093DC051092DB058091DD051816ECF422
:10379000082E000C990B831B9109022E000C330B91
:1037A0002817390794F097FF02C090E080E08093DB
:1037B000DC05092E000CAA0BBB0B8093A00790938D
:1037C000A107A093A207B093A3078091DC0566230D
:1037D000A9F09091DE05891714F48093DE052091FD
:1037E000DE05022E000C330B2D5F3F4F482F082EB5
:1037F000000C550B241735071CF483508093DE050D
:103800000895809173058630D8F496E0899FF00181
:103810001124E15BFA4F20913B0230913C0231834D
:1038200020834091A0075091A1076091A207709159
:10383000A30742835383648375838F5F80937305EB
:10384000089520913B0230913C0228173907D9F0A6
:1038500090933C0280933B024093A0075093A107B2
:103860006093A2077093A3078B5A914321F410929F
:10387000BB07109273050E949BBB82E080934402B9
:1038800081E08093DB05089521E02093BB076093DE
:103890009705709398058093990590939A0540E059
:1038A00050E0BA0180919B0590919C05CACF60E0E1
:1038B00070E080E291E4E8CF60E070E080E89FE3B0
:1038C000E3CF6DEC7CEC8CEC9DE3DECF40E050E090
:1038D000BA018BEA91E3B5CFE0917305EE2381F055
:1038E000E150E093730586E0E89FF0011124E15B6D
:1038F000FA4F428153816481758180819181A1CF8A
:10390000E5CFEF92FF920F93CF93DF93D82F7A01F9
:10391000C22F80E00E948ABBD11101C0C0E28C2F6F
:103920000E94D5BBC2E1F7016491662359F0CC2314
:1039300089F08AE49FE00E94A2BBC150FFEFEF1A1A
:10394000FF0AF1CFC15030F060E28AE49FE00E94AC
:10395000A2BBF8CF802FDF91CF910F91FF90EF9016
:103960000C94D5BB2F923F924F925F926F927F92B1
:103970008F929F92AF92BF92CF92DF92EF92FF927F
:103980000F931F93CF93DF9361E081E0DFDEC0915F
:10399000DE05D12C23E0322ECC24C39433E4232E35
:1039A0004CED842E45E0942EA12CB12C56ED452EE5
:1039B00056E0552E612C712CC1117DC08091DC0523
:1039C000882309F458C080914402882359F081E08B
:1039D0009091DC05911180E003E023E041EA51E29F
:1039E0006D2D8FDF8091DA05882309F40BC1D3E0B8
:1039F000C23009F008C18091DC05823009F48EC024
:103A0000809144028111ECC0D3E081E08D0F8C13D2
:103A100029C08091DC058C1709F444C180914402CF
:103A2000882301F12F9288E48F931F921F921F9297
:103A30001F928EEC95E09F938F938EE491E29F937B
:103A40008F93DF9281E09091DC059C1380E08F934F
:103A50000E94F9D08DB79EB70C960FB6F8949EBF12
:103A60000FBE8DBFCF5FD39494E0D912A5CFDE5F98
:103A7000D093DD050DC08091E805882309F4A3CF1C
:103A80001092E80529DF8091DB05882309F49BCF9C
:103A9000DF91CF911F910F91FF90EF90DF90CF902A
:103AA000BF90AF909F908F907F906F905F904F905E
:103AB0003F902F900895C13009F094CF8091DC059C
:103AC0008130C9F080914402882309F48BCF809122
:103AD000DA0524E931E2811102C020E931E281E016
:103AE0009091DC05913009F080E048E951E26D2DBC
:103AF0000E9466D077CF8091E805882319F38091E2
:103B0000DA051092E8058C278093DA05309244029A
:103B10003ED88091DB058823A9F2BACF8091E805D1
:103B2000882309F46DCF1092E805C092E705109242
:103B3000E3051092E4051092E5051092E60561DEBA
:103B40003092440285E891E29093AF078093AE07EC
:103B500086ED95E09093AD078093AC078092A8071F
:103B60009092A907A092AA07B092AB074092A4072F
:103B70005092A5076092A6077092A70720E030E058
:103B80004AE754E46091D6057091D7058091D80535
:103B90009091D9050E9480E120E030E84BEB54E49D
:103BA0000E9430E50E947AE66093A0077093A10717
:103BB0008093A2079093A3078FE699EB90933C0222
:103BC00080933B0287EC95E19093B2078093B10715
:103BD0001092B0078091DB05882309F411CF58CFEC
:103BE000D1E08091DC05823009F0D0E086ED95E0EF
:103BF0000E94DAB89C014AE751E26D2D8D2F0E9498
:103C0000ADD002CFD2E0DC1300CF8091DC058D1760
:103C100031F180914402882309F4F7CE2F9288E491
:103C20008F931F921F921F921F9282ED95E09F9398
:103C30008F9382E691E29F938F93DF9281E0909140
:103C4000DC059C1380E08F930E94F9D08DB79EB75E
:103C50000C960FB6F8949EBF0FBE8DBFD6CE809146
:103C6000E8058823B1F21092E805C092E7051092AA
:103C7000E3051092E4051092E5051092E605E12CAB
:103C8000F12C08E413E420E030E0A90162ED75E0D6
:103C90008EE691E20E9469B88091DB05882309F4E1
:103CA000B8CFF6CE8091E805882309F4B7CE1092FC
:103CB000E805C092E7051092E3051092E405109222
:103CC000E5051092E605E12CF12C08E413E420E070
:103CD00030E0A9016EEC75E088E591E20E9469B8D8
:103CE0008091DB05882309F499CED2CE0F93CF9330
:103CF000DF9361E081E02ADDD091DE05C0E0D111E3
:103D00002AC08091DC058823B9F080914402882381
:103D100059F081E09091DC05911180E003E023E00F
:103D200045E451E26C2FEDDDDF5FCF5FC43039F742
:103D300085E08093DD050BC08091E805882329F399
:103D40001092E805C9DD8091DB058823F1F2DF914F
:103D5000CF910F910895D13011F58091DC0581301C
:103D600079F0809144028823F9F281E09091DC059A
:103D7000913009F080E00EE32EE34CE351E2D2CF24
:103D80008091E805882369F31092E80580E49FE1BB
:103D90000E9448D18091DB05882319F3D8CFD23017
:103DA00009F055C08091DC05823081F08091440299
:103DB000882309F4B9CF81E09091DC05923009F0B5
:103DC00080E00EE32EE341E351E2ACCF8091E805C1
:103DD000882361F31092E8058BE791E20E9448D1B5
:103DE0008091DB05882311F3B2CF8091DC0583300D
:103DF00081F080914402882309F496CF81E090916C
:103E0000DC05933009F080E00EE32EE34CE251E252
:103E100089CF8091E805882361F31092E8058DE64B
:103E200094E20E9448D18091DB05882311F38FCF63
:103E30008091E8058823A1F01092E8058CE096E2D5
:103E40000E9448D18091DB05882351F080CFD33088
:103E500061F2D43009F068CF8091DC05843041F301
:103E600080914402882309F45FCF81E09091DC05C2
:103E7000943009F080E00EE32EE343E251E252CFAA
:103E80003F924F925F926F927F928F929F92AF92EA
:103E9000BF92CF92DF92EF92FF920F931F93CF9337
:103EA000DF9361E081E052DCC091DE05D0E0552473
:103EB000539463E0462E77EE372EE5EDCE2EEFE1FC
:103EC000DE2EF3EEAF2EFFE1BF2EA1EF8A2EAFE183
:103ED0009A2EBFEF6B2EBFE17B2EC11138C08091AF
:103EE000DC058823B9F080914402882359F081E0F1
:103EF0009091DC05911180E003E023E04DE050E279
:103F00006D2FFFDCCF5FDF5FD43039F787E0809320
:103F1000DD050BC08091E805882329F31092E805A0
:103F2000DBDC8091DB058823F1F2DF91CF911F91DB
:103F30000F91FF90EF90DF90CF90BF90AF909F9048
:103F40008F907F906F905F904F903F900895C13019
:103F500009F04AC08091DC05813009F1809144026A
:103F6000882381F24F923F921F925F9280E098E007
:103F70009F938F937F926F92DF9381E09091DC0506
:103F8000913009F080E08F930E94F9D08DB79EB7F1
:103F90000A960FB6F8949EBF0FBE8DBFB3CF809127
:103FA000E8058823D9F21092E805C093E70510923E
:103FB000E3051092E4051092E5051092E605E12C68
:103FC00010ECF12E09E714E420E030E040E85FE374
:103FD00060E078E086E090E20E9469B88091DB05BD
:103FE000882309F4BBCFA1CFC23009F050C1809122
:103FF000DC05823011F180914402882309F482CFDC
:104000004F923F921F925F9284E098E09F938F932C
:104010009F928F92DF9381E09091DC05923009F0BE
:1040200080E08F930E94F9D08DB79EB70A960FB6A5
:10403000F8949EBF0FBE8DBF65CF8091E8058823A1
:10404000D1F21092E8055092E7051092E305109224
:10405000E4051092E5051092E605E12C10ECF12E36
:1040600009E714E420E030E040E85FE364E078E052
:1040700088EF9FE10E9469B88091DB05882309F4ED
:10408000BACF53CF8091DC05833011F18091440287
:10409000882309F437CF4F923F921F925F9288E0B6
:1040A00098E09F938F93BF92AF92DF9381E09091BE
:1040B000DC05933009F080E08F930E94F9D08DB732
:1040C0009EB70A960FB6F8949EBF0FBE8DBF1ACF4B
:1040D0008091E8058823D1F21092E8055092E70517
:1040E0001092E3051092E4051092E5051092E605A2
:1040F000E12C10ECF12E09E714E420E030E040E878
:104100005FE368E078E08AEE9FE10E9469B8809101
:10411000DB05882309F4BACF08CF8091DC05843011
:1041200011F180914402882309F4ECCE4F923F9222
:104130001F925F928CE098E09F938F93DF92CF92D3
:10414000DF9381E09091DC05943009F080E08F935B
:104150000E94F9D08DB79EB70A960FB6F8949EBF0D
:104160000FBE8DBFCFCE8091E8058823D1F210928B
:10417000E8055092E7051092E3051092E4051092CD
:10418000E5051092E605E12C10ECF12E09E714E4A8
:1041900020E030E040E85FE36CE078E08CED9FE108
:1041A0000E9469B88091DB05882309F4BACFBDCE9F
:1041B0008091DC05853021F180914402882309F447
:1041C000A1CE4F923F921F921F928CE298E09F9354
:1041D0008F938BEC9FE19F938F93DF9381E090917E
:1041E000DC05953009F080E08F930E94F9D08DB7FF
:1041F0009EB70A960FB6F8949EBF0FBE8DBF82CEB3
:104200008091E8058823C1F21092E8055092E705F5
:104210001092E3051092E4051092E5051092E60570
:10422000E12C10ECF12E09E714E420E030E0A901C4
:104230006CE278E080ED9FE10E9469B88091DB0537
:10424000882309F4B9CF71CE8091E805882379F1EC
:104250001092E8055092E7051092E3051092E405EC
:104260001092E5051092E605E12C10ECF12E09E71D
:1042700014E420E030E0A90168E278E081EC9FE1FD
:104280000E9469B88091DB05882389F04ECEC33047
:1042900009F4F8CEC43009F440CFC53009F488CF12
:1042A000C63009F02FCE8091DC05863069F280910E
:1042B0004402882309F426CE4F923F921F921F9208
:1042C00088E298E09F938F9387EB9FE19F938F9372
:1042D000DF9381E09091DC05963009F080E08F93C8
:1042E0000E94F9D08DB79EB70A960FB6F8949EBF7C
:1042F0000FBE8DBF07CE2F923F924F925F926F926B
:104300007F928F929F92AF92BF92CF92DF92EF9265
:10431000FF920F931F93CF93DF9300D01F92CDB7DF
:10432000DEB761E081E012DA1091DE05F12CEE24B7
:10433000E39485E5C82E80E2D82E812C912C54017F
:1043400083942DED422E23E0522E612C712C38E106
:10435000232E34EC332E11113EC08091DC058823CE
:10436000C1F080914402882359F081E09091DC05EE
:10437000911180E003E023E041E850E26F2DC1DAC3
:104380001F5FF394B4E0FB12E6CF88E08093DD0575
:104390000BC08091E805882321F31092E8059CDA90
:1043A0008091DB058823E9F20F900F900F900F901A
:1043B000DF91CF911F910F91FF90EF90DF90CF9001
:1043C000BF90AF909F908F907F906F905F904F9035
:1043D0003F902F900895113009F076C08091DC0550
:1043E0008130B1F080914402882351F201E0809144
:1043F000DC05813009F000E088EF97E00E94A0C260
:104400009C0143E750E26F2D802F0E94ADD0B8CFC2
:104410008091E805882331F31092E8051093E705B1
:104420001092E3051092E4051092E5051092E6055E
:10443000E8D983E080934402AAE7B0E2B093AF07E3
:10444000A093AE0788EF97E09093AD078093AC07F9
:104450001092A8071092A9071092AA071092AB0712
:104460008EED93E0A0E0B0E08093A4079093A507C1
:10447000A093A607B093A7072AE037ED43E25CE3D9
:104480006091F8077091F9078091FA079091FB0706
:104490000E9480E10E947AE66093A0077093A107D2
:1044A0008093A2079093A30730923C0220923B0294
:1044B0001092B2071092B1071092B0078091DB05FD
:1044C000882309F48FCF70CF123009F0D2C18091C8
:1044D000DC05823099F080914402882309F450CFA2
:1044E00001E08091DC05823009F000E08CEF97E07C
:1044F0000E94A0C29C014FE550E285CF8091E80563
:10450000882349F31092E805E092E7051092E3054D
:104510001092E4051092E5051092E60572D993E039
:1045200090934402A9E6B0E2B093AF07A093AE0720
:104530008CEF97E09093AD078093AC078092A8072B
:104540009092A907A092AA07B092AB074092A40745
:104550005092A5076092A6077092A7072AE037ED50
:1045600043E25CE36091FC077091FD078091FE07D8
:104570009091FF070E9480E120E030E040E85FE397
:104580000E9430E50E947AE66093A0077093A1072D
:104590008093A2079093A30730923C0220923B02A3
:1045A0001092B2071092B1071092B0078091DB050C
:1045B000882309F490CFF8CE8091DC05833099F000
:1045C00080914402882309F4DBCE01E08091DC0570
:1045D000833009F000E084EF97E00E94A0C29C01C4
:1045E0004BE450E210CF8091E805882349F3109204
:1045F000E805E092E7051092E3051092E4051092B9
:10460000E5051092E605FDD810934402D092AF075D
:10461000C092AE07A4EFB7E0B093AD07A093AC078C
:104620008092A8079092A907A092AA07B092AB0720
:104630004092A4075092A5076092A6077092A70720
:104640002AE037ED43E25CE36091F4077091F507EF
:104650008091F6079091F7070E9480E120E030E01A
:1046600040E85FE30E9430E50E947AE66093A0078D
:104670007093A1078093A2079093A30730923C0206
:1046800020923B021092B2071092B1071092B0072D
:104690008091DB05882309F493CF86CE8091DC05D9
:1046A000843009F180914402882309F469CE01E045
:1046B0008091DC05843009F000E06091BE057091C6
:1046C000BF058091C0059091C1050E941FE16983DB
:1046D0007A838B839C83CE0101960E94A0C29C01A9
:1046E0004DE350E290CE8091E8058823D9F21092F4
:1046F000E805E092E7051092E3051092E4051092B8
:10470000E5051092E60524E630E040E050E06EEB6F
:1047100075E084E490E20E942FBA8091DB05882343
:1047200009F242CE8091DC05853009F18091440286
:10473000882309F425CE01E08091DC05853009F05D
:1047400000E06091C2057091C3058091C40590910D
:10475000C5050E941FE169837A838B839C83CE0108
:1047600001960E94A0C29C014FE250E24CCE809183
:10477000E8058823D9F21092E805E092E705109247
:10478000E3051092E4051092E5051092E60524E693
:1047900030E040E050E062EC75E086E390E20E9499
:1047A0002FBA8091DB05882309F2FECD8091DC05CC
:1047B000863009F180914402882309F4E1CD01E0BB
:1047C0008091DC05863009F000E06091C6057091AB
:1047D000C7058091C8059091C9050E941FE16983B2
:1047E0007A838B839C83CE0101960E94A0C29C0198
:1047F00041E250E208CE8091E8058823D9F2109278
:10480000E805E092E7051092E3051092E4051092A6
:10481000E5051092E6052AE030E040E050E066EC65
:1048200075E088E290E20E942FBA8091DB05882330
:1048300009F2BACD8091E805882371F11092E8055C
:10484000E092E7051092E3051092E4051092E50569
:104850001092E60524E630E040E050E06AEC75E0B6
:104860008AE190E20E942FBA8091DB058823A1F0B3
:104870009BCD133009F4A0CE143009F40FCF1530BE
:1048800009F450CF163009F491CF173009F078CDE4
:104890008091DC05873071F280914402882309F40D
:1048A0006FCD01E08091DC05873009F000E0609178
:1048B000CA057091CB058091CC059091CD050E94E1
:1048C0001FE169837A838B839C83CE0101960E94CA
:1048D000A0C29C0143E150E296CD3F924F925F927D
:1048E0006F927F928F929F92AF92BF92CF92DF9200
:1048F000EF92FF920F931F93CF93DF9361E081E0DC
:104900000E94A61BC091DE05D0E05524539443E0DD
:10491000442E5EED352E67E8C62E60E2D62E70EE90
:10492000672E71EC772EE7EAAE2EE0E2BE2EF7EBB3
:104930008F2EF0E29F2EC1113AC08091DC058823B2
:10494000C1F080914402882361F081E09091DC0500
:10495000911180E003E023E047EC50E26D2F0E94CC
:10496000811CCF5FDF5FD43031F785E08093DD05B8
:104970000CC08091E805882321F31092E8050E947D
:104980006C1C8091DB058823E1F2DF91CF911F91B0
:104990000F91FF90EF90DF90CF90BF90AF909F90DE
:1049A0008F907F906F905F904F903F900895C130AF
:1049B00009F04AC08091DC05813009F18091440200
:1049C000882379F24F923F921F925F9280ED97E099
:1049D0009F938F939F928F92DF9381E09091DC055C
:1049E000913009F080E08F930E94F9D08DB79EB787
:1049F0000A960FB6F8949EBF0FBE8DBFB2CF8091BE
:104A0000E8058823D9F21092E805C093E7051092D3
:104A1000E3051092E4051092E5051092E605E12CFD
:104A200010E8F12E07E714E420E030E040E85FE30F
:104A300060ED77E08FEB90E20E9469B88091DB0532
:104A4000882309F4BBCFA1CFC23009F0B9C080914F
:104A5000DC05823011F180914402882309F481CF72
:104A60004F923F921F925F9284ED97E09F938F93B6
:104A7000BF92AF92DF9381E09091DC05923009F014
:104A800080E08F930E94F9D08DB79EB70A960FB63B
:104A9000F8949EBF0FBE8DBF64CF8091E805882338
:104AA000D1F21092E8055092E7051092E3051092BA
:104AB000E4051092E5051092E605E12C10E8F12ED0
:104AC00007E714E420E030E040E85FE364ED77E0DE
:104AD0008FEA90E20E9469B88091DB05882309F48F
:104AE000BACF53CF8091DC058330B9F08091440276
:104AF000882309F436CF11E08091DC05833009F07A
:104B000010E088ED97E00E9441C19C0147E950E226
:104B10006D2F812F0E94ADD024CF8091E80588238E
:104B200029F31092E8055092E7051092E3051092E0
:104B3000E4051092E5051092E605E12C10E8F12E4F
:104B400007E714E42DEC3CEC4CEC5DE368ED77E01A
:104B50008FE990E20E9402D270923C0260923B0286
:104B60001092B2071092B1071092B0078091DB0546
:104B7000882309F4BBCF09CF8091E805882351F140
:104B80001092E8055092E7051092E3051092E405B3
:104B90001092E5051092E605E12C10E8F12E07E7EA
:104BA00014E420E030E040E85FE36CED77E08FE86C
:104BB00090E20E9469B88091DB05882359F0E5CE28
:104BC000C33009F48FCFC43009F0CBCE8091DC051F
:104BD000843091F280914402882309F4C2CE4F922E
:104BE0003F921F925F928CED97E09F938F93DF929D
:104BF000CF92DF9381E09091DC05943009F080E062
:104C00008F930E94F9D08DB79EB70A960FB6F8948D
:104C10009EBF0FBE8DBFA5CE9F92AF92BF92CF9287
:104C2000DF92EF92FF920F931F93CF93DF9361E098
:104C300081E00E94A61BC091DE05D0E099249394E8
:104C400041E8C42E40ECD42E5AE5A52E5AE6B52EE6
:104C5000C11134C08091DC058823C1F080914402E9
:104C6000882361F081E09091DC05911180E003E000
:104C700023E04DE151E26D2F0E94811CCF5FDF5F89
:104C8000D43031F785E08093DD050CC08091E805D4
:104C9000882321F31092E8050E946C1C8091DB05AB
:104CA0008823E1F2DF91CF911F910F91FF90EF9058
:104CB000DF90CF90BF90AF909F900895C13009F0E2
:104CC00049C08091DC058130B1F080914402882395
:104CD000A9F211E08091DC05813009F010E084E058
:104CE0009DE00E94C1BF9C0149E051E26D2F812FE0
:104CF0000E94ADD0C3CF8091E805882331F3109294
:104D0000E805C093E7051092E3051092E4051092C0
:104D1000E5051092E605E12C1CE3F12E0CE116E40A
:104D200020E030E040EA50E464E07DE083E191E29D
:104D30000E9402D2D0923C02C0923B02B092B207D3
:104D4000A092B1071092B0078091DB05882309F487
:104D5000BCCFA8CFC23009F0BAC08091DC05823048
:104D600099F080914402882309F488CF11E0809162
:104D7000DC05823009F010E088E09DE00E94C1BFB0
:104D80009C0145EF50E2B2CF8091E805882349F3BA
:104D90001092E8059092E7051092E3051092E40561
:104DA0001092E5051092E605E12C1CE3F12E0CE1D2
:104DB00016E420E030E040EA50E468E07DE08FEF68
:104DC00090E20E9402D2D0923C02C0923B02B0928A
:104DD000B207A092B1071092B0078091DB0588233B
:104DE00009F4BFCF5FCF8091DC05833099F08091CB
:104DF0004402882309F442CF11E08091DC0583301E
:104E000009F010E08CE09DE00E94C1BF9C0141EEE2
:104E100050E26CCF8091E805882349F31092E805B1
:104E20009092E7051092E3051092E4051092E505D3
:104E30001092E605E12C1CE3F12E0CE116E420E0D3
:104E400030E040EA50E46CE07DE08BEE90E20E94BE
:104E500002D2D0923C02C0923B02B092B207A09222
:104E6000B1071092B0078091DB05882309F4BFCF0A
:104E700019CF8091E8058823A1F11092E80590925E
:104E8000E7051092E3051092E4051092E5051092F3
:104E9000E605E12C1CE3F12E0CE116E420E030E005
:104EA00040EA50E460E17DE087ED90E20E9402D2AA
:104EB000D0923C02C0923B02B092B207A092B107DE
:104EC0001092B0078091DB05882359F0EBCEC330F8
:104ED00009F489CFC43009F0D1CE8091DC0584304B
:104EE00041F280914402882309F4C8CE11E08091F8
:104EF000DC05843009F010E080E19DE00E94C1BF34
:104F00009C014DEC50E2F2CE2F923F924F925F9275
:104F10006F927F928F929F92AF92BF92CF92DF92C9
:104F2000EF92FF920F931F93CF93DF9361E081E0A5
:104F30000E94A61BC091DE05D0E03324339460EEBE
:104F4000462E61EC562E73E4272EE7EF6E2EEEE12F
:104F50007E2EF9E1CF2EFFE1DF2EA7E3AA2EAFE1EF
:104F6000BA2EB9E48B2EBFE19B2EC11188C080916F
:104F7000DC05882309F462C080914402882361F033
:104F800081E09091DC05911180E003E023E047E5AA
:104F90005FE16D2F0E94811C2CEA35EC47E25EE355
:104FA0006091AD057091AE058091AF059091B0050F
:104FB0000E940DE66093A9057093AA058093AB0546
:104FC0009093AC052CEA35EC47E25EE36091A505D1
:104FD0007091A6058091A7059091A8050E9480E197
:104FE0006093A1057093A2058093A3059093A405F7
:104FF000C83009F073C28091DC05883009F448C2DA
:1050000080914402882389F011E08091DC0588308A
:1050100009F010E08DE995E00E9441C19C014DEC42
:105020005EE16D2F812F0E94ADD0CF5FDF5FD43066
:1050300009F09BCF8DE08093DD050EC08091E805DF
:10504000882309F499CF1092E8050E946C1C809186
:10505000DB05882309F490CFDF91CF911F910F9149
:10506000FF90EF90DF90CF90BF90AF909F908F9088
:105070007F906F905F904F903F902F900895C13038
:1050800009F04DC08091DC05813039F180914402F6
:10509000882309F481CF81E998E19F938F933F9210
:1050A00084E08F931F921F9284E49FE09F938F93DD
:1050B0009F928F92DF9381E09091DC05913009F00F
:1050C00080E08F930E94E6D08DB79EB70C960FB606
:1050D000F8949EBF0FBE8DBF5FCF8091E8058823F7
:1050E000A9F21092E805C093E7051092E30510922B
:1050F000E4051092E5051092E60501E918E124E0C7
:1051000031E050E040E064E47FE080E59FE10E9410
:1051100008B88091DB05882309F4B8CF9DCFC23051
:1051200009F092C28091DC05823039F1809144020D
:10513000882309F431CF83EE96E39F938F931F92D8
:1051400087E88F931F921F9283EB97E09F938F9333
:10515000BF92AF92DF9381E09091DC05923009F02D
:1051600080E08F930E94E6D08DB79EB70C960FB665
:10517000F8949EBF0FBE8DBF0FCF8091E8058823A6
:10518000A9F21092E8053092E7051092E30510921B
:10519000E4051092E5051092E60503EE16E327E814
:1051A00030E050E040E063EB77E080E49FE10E9474
:1051B00008B88091DB05882309F4B8CF4DCF8091E2
:1051C000DC05833019F180914402882309F4E4CE90
:1051D0001F928FEF8F931F921F9280E398E09F930F
:1051E0008F93DF92CF92DF9381E09091DC05933033
:1051F00009F080E08F930E94E6D08DB79EB70A96A3
:105200000FB6F8949EBF0FBE8DBFC6CE8091E80545
:105210008823C9F21092E8053092E7051092E30561
:105220001092E4051092E5051092E60510E000E00A
:105230002FEF30E050E040E060E378E088E29FE16B
:105240000E9408B88091DB05882309F4BCCF04CF05
:105250009091DC059430B9F080914402882309F4E0
:105260009BCE8091B10529E03FE1811102C025E08C
:105270003FE181E0943009F080E04DE05FE16D2F87
:105280000E9466D089CE8091E805882329F3109288
:10529000E8058091B10583258093B10583E0809373
:1052A00044028091DB058823B9F2D6CE8091DC05DB
:1052B000853009F46AC0809144028823F9F02F9266
:1052C00082E88F931F921F921F921F928FE292E0AB
:1052D0009F938F937F926F92DF9381E09091DC0593
:1052E000953009F080E08F930E94F9D08DB79EB77A
:1052F0000C960FB6F8949EBF0FBE8DBF2CEA35EC0E
:1053000047E25EE36091AD057091AE058091AF0517
:105310009091B0050E940DE66093A9057093AA05CF
:105320008093AB059093AC052CEA35EC47E25EE345
:105330006091A5057091A6058091A7059091A8059B
:105340000E9480E16093A1057093A2058093A3055C
:105350009093A405CB3009F440C1CC3009F065CE60
:105360008091DC058C3009F45EC180914402882371
:1053700009F45BCE81E09091DC059C3009F080E07F
:105380000EE32EE345E95EE13BC18091E805882309
:1053900009F491CF1092E805E12CF12C02E813E416
:1053A00020E030E0A9016FE272E08EEF9EE10E9402
:1053B00069B88091DB05882309F47DCF4DCE8091BB
:1053C000DC05863039F180914402882309F496CFB8
:1053D0002F9282E88F931F921F921F921F928BE24F
:1053E00092E09F938F9389EE9EE19F938F93DF933B
:1053F00081E09091DC05963009F080E08F930E9467
:10540000F9D08DB79EB70C960FB6F8949EBF0FBE1D
:105410008DBFC2CD8091E8058823A9F21092E805DE
:10542000E12CF12C02E813E420E030E0A9016BE26A
:1054300072E080EF9EE10E9469B88091DB058823CD
:1054400011F20ACE8091E805882309F411C1109267
:10545000E805E12CF12C00E211E420E030E0A901A4
:1054600067E272E081EE9EE10E9402D28BEE95EC43
:1054700090933C0280933B021092B2071092B107C6
:105480001092B0078091DB05882309F4F1C0E4CDC8
:105490008091E805882309F4B3CD1092E805E12C4A
:1054A00018E1F12E0CE116E420E030E040E85FE383
:1054B0006DE975E083ED9EE10E9402D250923C02BC
:1054C00040923B021092B2071092B1071092B007BF
:1054D0008091DB05882309F493CDBECDC930E9F571
:1054E0008091DC05893099F080914402882309F489
:1054F0009CCD11E08091DC05893009F010E089EA4B
:1055000095E00E9441C19C0141EC5EE18ACD809111
:10551000E805882349F31092E805E12C18E1F12E03
:105520000CE116E42AE037ED43E25CE369EA75E05A
:1055300087EC9EE10E9402D250923C0240923B02D4
:105540008CED94E19093B2078093B1071092B0076D
:105550008091DB05882341F27FCDCA3009F0FACE75
:105560008091DC058A3099F080914402882309F407
:105570005CCD11E08091DC058A3009F010E081EA11
:1055800095E00E9441C19C0145EB5EE14ACD8091CE
:10559000E805882349F31092E805E12C18E1F12E83
:1055A0000CE116E420E030E040E85FE361EA75E0FA
:1055B0008BEB9EE10E9402D250923C0240923B0251
:1055C00085EC94E19093B2078093B1071092B007F5
:1055D0008091DB05882341F23FCD8091DC058B3043
:1055E00099F080914402882309F41FCD81E09091C5
:1055F000DC059B3009F080E00EE32EE345EA5EE136
:105600006D2F0E94811C11CD8091E805882349F3FC
:105610001092E8058BE19EE50E9448D18091DB0560
:105620008823F9F219CD8091E805882309F49DCEED
:105630001092E80589E19EE50E9448D18091DB0542
:10564000882309F492CE08CDC33009F4B8CDC43014
:1056500009F4FECDC53009F429CEC63009F4AFCE29
:10566000C73009F099CC8091DC05873009F4EACE87
:1056700080914402882309F441CE11E08091DC0539
:10568000873009F010E087E292E00E944EC59C014D
:1056900049ED5EE16D2F812F0E94ADD07DCC0F933F
:1056A000CF93DF9361E081E00E94A61BD091DE05DD
:1056B000C0E0D1112CC08091DC058823C1F080911D
:1056C0004402882361F081E09091DC05911180E033
:1056D00003E023E04BE05EE16C2F0E94811CDF5F62
:1056E000CF5FC43031F785E08093DD050CC0809139
:1056F000E805882321F31092E8050E946C1C809134
:10570000DB058823E1F2DF91CF910F910895D1302D
:1057100011F58091DC05813079F080914402882375
:10572000F1F281E09091DC05913009F080E00EE328
:105730002EE340E05EE1D0CF8091E805882369F355
:105740001092E80588E79DE20E9448D18091DB0530
:10575000882319F3D8CFD23009F055C08091DC05E9
:10576000823081F080914402882309F4B8CF81E02F
:105770009091DC05923009F080E00EE32EE345EFD6
:105780005DE1AACF8091E805882361F31092E805D6
:105790008CE79DE20E9448D18091DB05882311F3BC
:1057A000B2CF8091DC05833081F080914402882360
:1057B00009F495CF81E09091DC05933009F080E009
:1057C0000EE32EE34AEE5DE187CF8091E805882362
:1057D00061F31092E80580E89DE20E9448D1809133
:1057E000DB05882311F38FCF8091E8058823A1F092
:1057F0001092E80584E89DE20E9448D18091DB0583
:10580000882351F080CFD33061F2D43009F067CFD4
:105810008091DC05843041F380914402882309F4AF
:105820005ECF81E09091DC05943009F080E00EE3DA
:105830002EE341EE5DE150CF0F931F93CF93DF93A3
:10584000182F70939C0560939B0561E081E00E9496
:10585000A61BD091DE05C0E081E0113009F45BC0E9
:1058600050F1123009F481C0D111A7C08823D9F0BA
:105870008091DC051816BCF04091A0075091A1075B
:105880006091A2077091A3074F5F5F4F6F4F7F4FEB
:105890004093A0075093A1076093A2077093A307BA
:1058A0008F5F8093DC0580914402882351F141E0B1
:1058B00067EB7DE156C0D11180C08823D9F080917B
:1058C000DC051816BCF04091A0075091A10760912B
:1058D000A2077091A3074F5F5F4F6F4F7F4F4093B9
:1058E000A0075093A1076093A2077093A3078F5F4F
:1058F0008093DC058091440241E066ED7DE18111F9
:1059000030C0DF5F80E0CF5FC43009F0A6CF85E014
:105910008093DD0577C0D11150C08823D9F08091E4
:10592000DC051816BCF04091A0075091A1076091CA
:10593000A2077091A3074F5F5F4F6F4F7F4F409358
:10594000A0075093A1076093A2077093A3078F5FEE
:105950008093DC058091440241E06BEC7DE188237B
:1059600081F28C2F0E942CCDCCCFD11126C0882360
:10597000D9F08091DC051816BCF04091A007509139
:10598000A1076091A2077091A3074F5F5F4F6F4F10
:105990007F4F4093A0075093A1076093A207709395
:1059A000A3078F5F8093DC058091440241E060ECA7
:1059B0007DE1882309F4A5CFD4CFD13041F5809182
:1059C000DC05813099F080914402882309F499CF55
:1059D00081E09091DC05913009F080E003E023E064
:1059E0004AEA5DE16C2F0E94811C8BCF8091E80513
:1059F000882349F31092E8050E946C1C8091DB0516
:105A0000882309F3DF91CF911F910F910895D23030
:105A100009F055C08091DC05823081F0809144020C
:105A2000882309F46ECF81E09091DC05923009F073
:105A300080E00EE32EE34AE95DE1D4CF8091E805F2
:105A4000882361F31092E80587E59CE10E9448D124
:105A50008091DB05882311F3D5CF8091DC0583305D
:105A600081F080914402882309F44BCF81E090912A
:105A7000DC05933009F080E00EE32EE34BE85DE1B6
:105A8000B1CF8091E805882361F31092E8058CE599
:105A90009CE10E9448D18091DB05882311F3B2CFAD
:105AA0008091E8058823A1F01092E80581E69CE149
:105AB0000E9448D18091DB05882351F0A3CFD330D9
:105AC00061F2D43009F01DCF8091DC05843041F3C0
:105AD00080914402882309F414CF81E09091DC0581
